:100000000C94D4000C94FC000C94FC000C94FC00A8
:100010000C94FC000C94FC000C94FC000C94FC0070
:100020000C94FC000C94FC000C94FE020C947003E5
:100030000C94FC000C94FC000C94FC000C94FC0050
:100040000C94FC000C94FC000C94FC000C94FC0040
:100050000C94FC000C94FC000C94FC000C94B40276
:100060000C94FC000C94FC000C94FC000C94FC0020
:100070000C94FC000C94FC000C94FC000C94FC0010
:100080000C94FC000C94FC000C94FC000C94FC0000
:100090000C949D070C94FC000C94FC000C94FC0048
:1000A0000C94FC000C94FC000C94FC0056075907BF
:1000B00048074C0750077A077A077A075D076107F8
:1000C00065076B076F077A077507080B00020202C6
:1000D00001000904000001020200000524001001D3
:1000E0000524010101042402060524060001070578
:1000F000810310004009040100020A000000070506
:1001000002024000000705830240000004030904C6
:1001100012010002EF02014041234180000101026F
:10012000030141726475696E6F204C4C430041724B
:100130006475696E6F2059756E000000000025001F
:1001400028002B002E0031000404040404030405DD
:100150000202020204030202020206060606060664
:10016000040402020204040408020110408040104A
:1001700020408040800802040180402010020110CD
:100180008010204040200000000200090F00000302
:100190000401000C0000000000000000000000004E
:1001A000000000000000D80A11241FBECFEFDAE0E3
:1001B000DEBFCDBF11E0A0E0B1E0EAE2F6E102C0AF
:1001C00005900D92A035B107D9F722E0A0E5B1E086
:1001D00001C01D92AB38B207E1F710E0C4EDD0E0EA
:1001E00004C02197FE010E94080BC33DD107C9F747
:1001F0000E948B090C94130B0C9400004091530146
:1002000050915401209151013091520142175307EE
:10021000B4F49091E8009570E1F39091E80092FDBC
:1002200019C08093F100809153019091540101967F
:100230008F739927892B19F48EEF8093E8008091B2
:10024000530190915401019690935401809353016E
:1002500081E0089580E00895DF92EF92FF920F937E
:100260001F93CF93DF93D82EF92EE42E062F10E0A4
:10027000C8010196880F0E94FE0083E00E94FE00E4
:10028000CD2DDF2D0C0F1D1FC017D10789F0E7FE04
:1002900003C0FE01849101C088810E94FE00F82EF7
:1002A00080E00E94FE008F2121968111EDCF01C0D8
:1002B00081E0DF91CF911F910F91FF90EF90DF9040
:1002C0000895DF92EF92FF920F931F93CF93DF93E6
:1002D000D82E8A017B01E40EF51EEB01CE15DF0559
:1002E00071F0D7FE03C0FE01849101C088810E9495
:1002F000FE0021968111F2CF8FEF9FEF01C0C80160
:10030000DF91CF911F910F91FF90EF90DF900895B3
:10031000615030F02091F100FC0120830196F8CF6C
:10032000289884E68093B2010895CF92DF92EF92ED
:10033000FF920F931F93CF93DF936C017A018B0190
:10034000C0E0D0E0CE15DF0581F0D8016D918D01C0
:10035000D601ED91FC910190F081E02DC601099547
:10036000892B11F02196EECF7E01C701DF91CF914D
:100370001F910F91FF90EF90DF90CF900895089517
:1003800080E090E008950F931F93CF93DF931F9227
:10039000CDB7DEB782E0898342E450E06AEC70E0DA
:1003A00080E80E9461010E948907DC0112960D918C
:1003B0001C9113970115110589F0D801ED91FC915D
:1003C0000280F381E02DBE016F5F7F4FC801099568
:1003D00097FD04C0F80100851185ECCF89810F904D
:1003E000DF91CF911F910F910895CF93FC01C481AC
:1003F00021E020938001C09350011092840110925B
:1004000083018385682B84EB91E00E94FB06909129
:100410008301913208F045C080918A018111FCCF9F
:1004200082E080938A0181E080938C018FEF80933A
:1004300089011092AE019093AD01A0E6B1E0EDE824
:10044000F1E080E0981721F02D9121938F5FFACF92
:100450001092AF018091AF01CC0FC82BC093AF01B8
:1004600080918B01813061F410928B018091AF01FA
:100470008093BB008091BC0083FDF8CF85EC01C068
:1004800085EE8093BC0080918A018230E1F38091F7
:1004900089018F3F31F080918901803211F0809184
:1004A0008901109284011092830110928001CF91F2
:1004B00008950F931F93CF938C01C62F0E94F501CF
:1004C0006C2F6460C8010E94F5016C2F6B7FC8011E
:1004D0000E94F50183EC90E00197F1F7CF911F9115
:1004E0000F9108950F931F93CF93DF938C01C62F25
:1004F000D42F607F642B0E94590280E1C89FB00115
:1005000011246D2BC801DF91CF911F910F910C9495
:10051000590241E00E94720281E090E008953FB7E5
:10052000F89480915C0190915D01A0915E01B09181
:100530005F0126B5A89B05C02F3F19F00196A11DAC
:10054000B11D3FBFBA2FA92F982F8827820F911D69
:10055000A11DB11DBC01CD0142E0660F771F881FB0
:10056000991F4A95D1F708951F920F920FB60F92D7
:1005700011242F933F938F939F93AF93BF938091B9
:10058000580190915901A0915A01B0915B013091AD
:10059000570123E0230F2D3720F40196A11DB11D33
:1005A00005C026E8230F0296A11DB11D2093570117
:1005B0008093580190935901A0935A01B0935B0125
:1005C00080915C0190915D01A0915E01B0915F010D
:1005D0000196A11DB11D80935C0190935D01A093D4
:1005E0005E01B0935F01BF91AF919F918F913F9159
:1005F0002F910F900FBE0F901F9018951F920F9282
:100600000FB60F9211248F939F938091E1009091E8
:10061000E100937F9093E10083FF0FC01092E90007
:1006200091E09093EB001092EC0092E39093ED0038
:100630001092B30198E09093F00082FF20C093E005
:100640009093E9009091F200992319F09AE3909326
:10065000E8009091B001992339F09091B001915048
:100660009093B001992389F19091B201992339F0C7
:100670009091B20191509093B201992341F184FF7E
:1006800010C08091E2008E7E81608093E2008091B4
:10069000E1008F7E8093E1008091B1018E7E8061C8
:1006A00011C080FF16C08091E2008E7E8061809331
:1006B000E2008091E1008E7E8093E1008091B101A3
:1006C0008E7E81608093B10104C05D9ACDCF289A5F
:1006D000D6CF9F918F910F900FBE0F901F901895BE
:1006E0001F920F920FB60F921124CF92DF92EF92CA
:1006F000FF920F931F932F933F934F935F936F93AB
:100700007F938F939F93AF93BF93EF93FF93CF9379
:10071000DF93CDB7DEB76C97DEBFCDBF1092E90097
:100720008091E80083FFFBC168E0CE0145960E94FE
:10073000880182EF8093E8008D8987FF05C0909142
:10074000E80090FFFCCF03C09EEF9093E800982F45
:10075000907609F0C6C09E894F89588D2F89F88CF4
:1007600091110CC0803829F4809156018093F100DA
:1007700002C01092F1001092F10045C1913051F485
:10078000811141C14130510509F03DC180915601AF
:100790008D7F0BC0933061F4811135C1413051051B
:1007A00009F031C1809156018260809356012BC1BE
:1007B000953049F48091E80080FFFCCF822F80685B
:1007C0008093E30020C1963009F05EC00B8D1C8D34
:1007D00022E01092E9001092540110925301F2129B
:1007E00032C010925201109251010E94C30199E04F
:1007F000BE016F5F7F4FDB01E92F1D92EA95E9F79C
:100800009983FA8291E09E8390EA98879AEF99877C
:100810002091530130915401275F3F4F3C832B833C
:100820008D831092E900109254011092530110939D
:1008300052010093510149E050E080E00E946101C3
:100840000E94C301E0C010935201009351010E9425
:100850008907DC0112960D911C9113970115110562
:1008600009F4BBC0D801ED91FC910480F581E02D25
:10087000BE016B5E7F4FC8010995009709F0C7C0A4
:10088000F80100851185EACF973009F445C1983009
:1008900021F481E08093F100B6C0993009F0B3C033
:1008A000837009F039C1EDE0F1E081E031E096E3D9
:1008B0002081211109C08EE78093EA001092EA009E
:1008C0008F898093B3019FC08093E9003093EB0040
:1008D00021912093EC009093ED008F5F873041F7DA
:1008E000EACF8B8D9C8D1092E900109254011092EA
:1008F00053019093520180935101898D811153C00E
:100900008E899D89913A49F4813209F005C147E009
:1009100050E064E071E080E0BBC0913209F0FCC0BF
:10092000833269F48F89988DA0E0B0E08093000154
:1009300090930101A0930201B093030164C080323F
:1009400069F48091E80082FFFCCF67E084E091E0E9
:100950000E9488018BEF8093E80055C0823209F035
:1009600052C08F8980930B01EEEFFFE78591949140
:100970008B3F9C4D19F0E0E0F8E002C0EEEFFAE0AA
:100980008091040190910501A0910601B0910701A9
:10099000803B9440A105B10509F09EC080910B01F8
:1009A00080FF79C099C00E948907FC0102811381F0
:1009B0000115110509F4B0C0D801ED91FC91019029
:1009C000F081E02DBE016B5E7F4FC801099581115A
:1009D0001AC0F80100851185EBCFF1E0FF1609F48C
:1009E0004EC0F3E0FF1298C08F89882309F44AC0F3
:1009F000823089F440E86BE08EE291E00E942C01A5
:100A0000882309F489C08EEF8093E80088C0181607
:100A10001906CCF381C0813029F440E86BE082E212
:100A200091E0ECCF833009F077C00E948907DC01A8
:100A30001296ED90FC9013978E010F5F1F4F680187
:100A4000E114F10479F0D701ED91FC910680F78172
:100A5000E02DB801C7010995080F111DF701E084C9
:100A6000F184EECFD8011C92F60101900020E9F745
:100A70003197BF016C197D0940E0C601BFCF60E12D
:100A800071E002C06CE071E0FB01449150E080E84D
:100A90000E946101B8CFEE3F2AE0F20751F0808159
:100AA00091818737A7E79A0721F09093FF0A8093F7
:100AB000FE0A87E797E791838083809160008093A7
:100AC00055019BE088E10FB6F894A89580936000EB
:100AD0000FBE9093600097CF8081918187379747B1
:100AE00009F091CFA89580916000886180936000A3
:100AF0008091550180936000EE3FBAE0FB0739F02A
:100B00008091FE0A9091FF0A918380837CCF10929E
:100B1000FF0A1092FE0A77CF81E28093EB006C9679
:100B20000FB6F894DEBF0FBECDBFDF91CF91FF911E
:100B3000EF91BF91AF919F918F917F916F915F9155
:100B40004F913F912F911F910F91FF90EF90DF9068
:100B5000CF900F900FBE0F901F9018952091B3016A
:100B6000211103C08FEF9FEF08955FB7F89422E043
:100B70002093E9002091F20030E01216130614F4DD
:100B800021E030E0422FFC0184E6415038F0289803
:100B90008093B2019091F1009193F7CF2115310527
:100BA00021F08091F200882319F05FBFC9010895F8
:100BB0008BE68093E800F9CF2FB7F89483E0809319
:100BC000E9009091E800892F807295FF04C0909110
:100BD000F20080E4891B2FBF0895CF93DF931F920B
:100BE000CDB7DEB76983DC01ED91FC910280F38122
:100BF000E02D41E050E0BE016F5F7F4F09950F90FF
:100C0000DF91CF91089583E08093E9008091F20015
:100C1000882319F08AE38093E80008950E94DC0598
:100C200090E00895CF93DF931F92CDB7DEB7FC011C
:100C30008485958597FD05C02FEF3FEF3587248785
:100C40000BC0CE0101960E94AE05019719F489816F
:100C500090E002C08FEF9FEF0F90DF91CF9108954A
:100C60000F931F93CF93DF931F92CDB7DEB78C0105
:100C7000FC018485958597FF0EC0CE0101960E94E8
:100C8000AE05019719F4898190E002C08FEF9FEFC4
:100C9000F80195878487F801848595850F90DF9109
:100CA000CF911F910F910895FC018485958597FD43
:100CB0000BC09FB7F89482E08093E9008091F20026
:100CC0009FBF90E0019608959FB7F89482E08093CB
:100CD000E9008091F2009FBF90E0089585ED809338
:100CE000BC008091BC0084FDFCCF10928A01089565
:100CF00040910C02262F30E0240F311D21323105A6
:100D0000DCF420918A012430C9F4FC0180E090E0F9
:100D1000861758F430910C022191DC01A451BE4F8A
:100D2000A30FB11D2C930196F3CF80910C02680F95
:100D300060930C0280E0089581E0089582E00895B8
:100D4000089508950895E091820180918101E81746
:100D500030F4F0E0E453FE4F808190E008958FEF8F
:100D60009FEF08959091820180918101981750F42E
:100D7000E92FF0E0E453FE4F208130E09F5F909335
:100D8000820102C02FEF3FEFC901089580918101D8
:100D900090E020918201821B91090895CF92DF9209
:100DA000EF92FF920F931F93CF93DF937C01CB01C0
:100DB0008A0120918001222389F0EB016B01C40E8E
:100DC000D51ECC15DD0569F06991D701ED91FC9137
:100DD0000190F081E02DC7010995F3CF642F0E94A7
:100DE0007806C801DF91CF911F910F91FF90EF908E
:100DF000DF90CF900895CF93DF931F92CDB7DEB7EA
:100E00006983209180012223D1F020918301203237
:100E100040F021E030E0FC013383228380E090E069
:100E200015C080918401E82FF0E0E05AFE4F9981CF
:100E300090838F5F809384018093830105C061E07C
:100E4000CE0101960E94780681E090E00F90DF913C
:100E5000CF9108950E940E0B90E0FC01EA57FE4FDF
:100E60004491FC01E959FE4F2491FC01E85BFE4FDF
:100E70008491882309F44CC04423E1F150E0FA0145
:100E80003197EF30F105B0F5EA5AFF4F0C94080B9B
:100E9000909180009F7707C0909180009F7D03C054
:100EA00090918000977F9093800024C094B59F77A5
:100EB00002C094B59F7D94BD1DC0909190009F7716
:100EC00007C0909190009F7D03C090919000977F04
:100ED000909390000FC09091C0009F7703C09091B5
:100EE000C0009F7D9093C00005C09091C200977F85
:100EF0009093C200E82FF0E0EE0FFF1FE65CFE4F7C
:100F0000A591B4918FB7F894EC91E22BEC938FBF3D
:100F100008958091330281110DC082E080932F02E9
:100F200084E080933002109232021092310281E00C
:100F3000809333028FE292E008951F920F920FB6D2
:100F40000F9211242F933F934F935F936F937F934F
:100F50008F939F93AF93BF93EF93FF938091B900CB
:100F6000887F803609F49CC068F5883209F45BC03C
:100F700090F4803109F454C038F4882309F4F6C0A1
:100F8000883009F44DC0F6C0883109F44CC0803275
:100F900009F45DC0EFC0803409F468C048F48033C0
:100FA00009F455C0883309F0E5C080938901D8C0A1
:100FB000803509F44FC0883509F45DC0883409F0E4
:100FC000D9C0D6C0883909F4C7C0A8F4883709F455
:100FD00067C038F4883609F463C0803709F460C00C
:100FE000C9C0883809F4B8C0803909F45FC08038B6
:100FF00009F0C0C05BC0803B09F486C038F4803A79
:1010000009F466C0883A09F47FC0B4C0803C09F492
:10101000A7C0883C09F4A4C0883B09F48AC0AAC0D0
:101020008091AF0110C09091AE018091AD019817F1
:1010300070F5E091AE0181E08E0F8093AE01F0E09B
:10104000E357FE4F80818093BB0085EC86C0809380
:1010500089018EC0E091AE0181E08E0F8093AE01D8
:101060008091BB00F0E0E357FE4F80839091AE018A
:101070008091AD016EC0E091AE0181E08E0F809352
:10108000AE018091BB00F0E0E357FE4F808380917A
:101090008C0181116DC081E080938B0184EA61C075
:1010A00083E080938A0110922E02CFCF80912E028E
:1010B000803208F051C0E0912E0281E08E0F8093C3
:1010C0002E028091BB00F0E0E25FFD4F8083BDCF38
:1010D00085EC8093BC0010928A0180912E028032B0
:1010E00030F4E0912E02F0E0E25FFD4F108260915B
:1010F0002E0270E0E0918701F09188018EE092E08D
:10110000099510922E0236C084E080938A011092D5
:101110000D0210920C02E0918501F0918601099573
:1011200080910C02811105C081E080930C02109225
:10113000EC01E0910D0281E08E0F80930D02F0E052
:10114000E451FE4F80818093BB0090910D0280910D
:101150000C02981708F479CF85E88093BC000AC088
:1011600085EC8093BC0010928A0104C01092890122
:101170000E946E06FF91EF91BF91AF919F918F9169
:101180007F916F915F914F913F912F910F900FBE83
:101190000F901F9018958F929F92AF92BF92CF920F
:1011A000DF92EF92FF926B017C010E948F024B0154
:1011B0005C01C114D104E104F104F1F00E948F023A
:1011C000DC01CB0188199909AA09BB09883E934023
:1011D000A105B10570F321E0C21AD108E108F108B8
:1011E00088EE880E83E0981EA11CB11CC114D104A6
:1011F000E104F10419F7DDCFFF90EF90DF90CF907D
:10120000BF90AF909F908F9008958F929F92AF92D2
:10121000BF92CF92DF92EF92FF920F931F93CF93E3
:10122000DF936C017B018A0180910B01882309F413
:101230005CC08091B301882309F457C08091B1014B
:1012400080FF05C08091E00082608093E000E801AB
:10125000B12C8AEFA82E93E0892E2AE3922E2097B4
:1012600011F4BB20D9F10E94DC0581110AC0AA94B7
:10127000AA20D9F161E070E080E090E00E94CB0804
:10128000EECF282F30E0C217D3070CF48C2F9FB776
:10129000F8948092E9002091E80025FF1DC0282FD6
:1012A00030E0C21BD30BF701815020F041914093F5
:1012B000F100FACFE20EF31EBB2019F09092E80085
:1012C0000AC08091E80085FD07C09092E800BB2429
:1012D000B394209709F0B12C9FBFC1CF5D9884E6ED
:1012E0008093B0011016110644F081E090E0F60101
:1012F0009383828380E090E001C0C801DF91CF91A9
:101300001F910F91FF90EF90DF90CF90BF90AF9023
:101310009F908F900895789484B5826084BD84B541
:10132000816084BD85B5826085BD85B5816085BDE0
:1013300080916E00816080936E0010928100809198
:101340008100826080938100809181008160809320
:101350008100809180008160809380008091910065
:1013600082608093910080919100816080939100D0
:10137000809190008160809390008091C100846092
:101380008093C1008091C10082608093C1008091F0
:10139000C10081608093C1008091C300816080930F
:1013A000C3008091C00082608093C0008091C20021
:1013B00081608093C20080917A00846080937A007B
:1013C00080917A00826080937A0080917A008160B7
:1013D00080937A0080917A00806880937A001092DE
:1013E000B301109256011092B1018091D700816033
:1013F0008093D70080EA8093D80089B5806189BD49
:1014000089B5826089BD09B400FEFDCF61E070E05E
:1014100080E090E00E94CB088091D8008F7C8061B2
:101420008093D8008091E000807F8093E0008091DD
:10143000E1008E7E8093E1008DE08093E200559A7A
:10144000209A1092820110928101109284011092D0
:10145000830110928A0181E080938C0110928B01AC
:1014600082E00E942C0783E00E942C078091B90043
:101470008E7F8093B9008091B9008D7F8093B900F1
:1014800088E48093B80085E48093BC0080EA96E00D
:10149000909386018093850181EA96E0909388017C
:1014A000809387011092C5018091CA01823018F0A3
:1014B00098E09093C5018093C80162E370E080E0FA
:1014C00090E00E94CB086091CB0180EC91E00E94FB
:1014D000F50168EE73E080E090E00E94CB0860E3E5
:1014E00080EC91E00E945902CBE4D6E4CE01019752
:1014F000F1F760E380EC91E00E9459022197F1F747
:1015000060E380EC91E00E94590283E592E001974C
:10151000F1F760E280EC91E00E9459026091C50110
:10152000606240E080EC91E00E94720284E080936F
:10153000C60140E06CE080EC91E00E94720240E065
:1015400061E080EC91E00E947202CBE3DFE1CE012A
:101550000197F1F782E08093C70140E066E080ECFC
:1015600091E00E94720240E062E080EC91E00E9413
:1015700072022197F1F788E08093CB0160E080EC64
:1015800091E00E94F50140E060E880EC91E00E946B
:1015900072024BE050E063E471E080EC91E00E9465
:1015A0009501C0E0D0E02097F1F30E940000FBCF4E
:1015B000EBE3F2E01382128288EE93E0A0E0B0E069
:1015C00084839583A683B78327E131E03183208329
:1015D0002FEF3FEF35872487E4EBF1E0138212828F
:1015E00084839583A683B78389E291E09183808386
:1015F000E0ECF1E0138212828BE391E0918380832F
:1016000087E2848380E1818782E082871386089560
:10161000EE0FFF1F0590F491E02D099481E090E01A
:0A162000F8940C94130BF894FFCF1C
:10162A00FFFFFFFF00E100000000000000C1808111
:10163A0000000000000000ED0505090E060306542F
:10164A00061206300600000000FB06CE06C001A204
:10165A0006C606B206A3060000000089029501C06C
:10166A0001BF0148656C6C6F20536F72656E000094
:00000001FF
