:100000000C9458000C9480000C9480000C94800098
:100010000C9480000C9480000C9480000C94800060
:100020000C9480000C9480000C9480000C94800050
:100030000C9480000C9480000C9480000C94800040
:100040000C9409040C9480000C9480000C948000A3
:100050000C9480000C9480000C9480000C94800020
:100060000C94DB020C9480000000000025002800A6
:100070002B00040404040404040402020202020229
:10008000030303030303010204081020408001025C
:1000900004081020010204081020000000080002DB
:1000A00001000003040700000000000000005304EA
:1000B00011241FBECFEFD8E0DEBFCDBF11E0A0E01E
:1000C000B1E0EAE1FBE002C005900D92A835B1076E
:1000D000D9F722E0A8E5B1E001C01D92AD32B20728
:1000E000E1F710E0C8E5D0E004C02197FE010E94CE
:1000F0008005C735D107C9F70E9473040C948B059E
:100100000C94000090E0FC01E656FF4F2491FC01A6
:10011000EA57FF4F3491FC01EE58FF4FE491EE2374
:10012000B1F1222339F1233091F038F42130A9F0D4
:10013000223001F584B58F7D12C0273091F0283030
:10014000A1F02430B9F4809180008F7D03C08091AC
:1001500080008F77809380000DC084B58F7784BD39
:1001600009C08091B0008F7703C08091B0008F7D6F
:100170008093B000F0E0EE0FFF1FE859FF4FA5910C
:10018000B4918FB7F894EC91E32BEC938FBF089563
:1001900085ED8093BC008091BC0084FDFCCF109263
:1001A000EF0108954091C901262F30E0240F311D41
:1001B00021323105DCF42091EF012430C9F4FC0137
:1001C00080E090E0861758F43091C9012191DC015C
:1001D000A955BE4FA30FB11D2C930196F3CF80916B
:1001E000C901680F6093C90180E0089581E0089516
:1001F00082E00895089508950895E091A401809102
:10020000A301E81730F4F0E0ED57FE4F808190E055
:1002100008958FEF9FEF08959091A4018091A3011D
:10022000981750F4E92FF0E0ED57FE4F208130E0B1
:100230009F5F9093A40102C02FEF3FEFC901089583
:100240008091A30190E02091A401821B910908955F
:10025000CF92DF92EF92FF920F931F93CF93DF9392
:100260007C01CB018A0120918201222389F0EB01DC
:100270006B01C40ED51ECC15DD0569F06991D7015F
:10028000ED91FC910190F081E02DC7010995F3CF2C
:10029000642F0E94D200C801DF91CF911F910F916E
:1002A000FF90EF90DF90CF900895CF93DF931F9250
:1002B000CDB7DEB76983209182012223D1F020914E
:1002C000A501203240F021E030E0FC01338322839D
:1002D00080E090E015C08091A601E82FF0E0EE5993
:1002E000FE4F998190838F5F8093A6018093A50133
:1002F00005C061E0CE0101960E94D20081E090E04D
:100300000F90DF91CF9108953FB7F89480915E01EF
:1003100090915F01A0916001B091610126B5A89B09
:1003200005C02F3F19F00196A11DB11D3FBFBA2F87
:10033000A92F982F8827820F911DA11DB11DBC01E7
:10034000CD0142E0660F771F881F991F4A95D1F7AC
:1003500008958F929F92AF92BF92CF92DF92EF92C9
:10036000FF926B017C010E9484014B015C01C1146E
:10037000D104E104F104F1F00E948401DC01CB011D
:1003800088199909AA09BB09883E9340A105B105BE
:1003900070F321E0C21AD108E108F10888EE880E56
:1003A00083E0981EA11CB11CC114D104E104F10426
:1003B00019F7DDCFFF90EF90DF90CF90BF90AF9017
:1003C0009F908F900895CF92DF92EF92FF920F93BC
:1003D0001F93CF93DF936C017A018B01C0E0D0E0D3
:1003E000CE15DF0581F0D8016D918D01D601ED911B
:1003F000FC910190F081E02DC6010995892B11F047
:100400002196EECF7E01C701DF91CF911F910F9111
:10041000FF90EF90DF90CF900895CF93FC01C481BF
:1004200021E020938201C09358011092A6011092FE
:10043000A5018385682B85E192E00E94550190918A
:10044000A501913208F045C08091EF018111FCCFE8
:1004500082E08093EF0181E08093F1018FEF809340
:10046000EE011092130290931202A2E6B1E0E2EFC5
:10047000F1E080E0981721F02D9121938F5FFACF62
:100480001092140280911402CC0FC82BC093140256
:100490008091F001813061F41092F001809114029A
:1004A0008093BB008091BC0083FDF8CF85EC01C038
:1004B00085EE8093BC008091EF018230E1F3809162
:1004C000EE018F3F31F08091EE01803211F080918A
:1004D000EE011092A6011092A50110928201CF9117
:1004E00008950F931F93CF938C01C62F0E940D0286
:1004F0006C2F6460C8010E940D026C2F6B7FC801D5
:100500000E940D0283EC90E00197F1F7CF911F91CB
:100510000F9108950F931F93CF93DF938C01C62FF4
:10052000D42F607F642B0E94710280E1C89FB001CC
:1005300011246D2BC801DF91CF911F910F910C9465
:100540007102CF93DF93CDB7DEB728970FB6F8943B
:10055000DEBF0FBECDBF98E0E0E0F1E0DE01119616
:1005600001900D929A95E1F790912902981710F455
:100570008FEF890FFE013196E80FF11DE80FF11D95
:100580006081606840E081E292E028960FB6F894BE
:10059000DEBF0FBECDBFDF91CF910C948A0241E048
:1005A0000E948A0281E090E00895089580E090E042
:1005B00008950E9486051F920F920FB60F92112484
:1005C0002F933F934F935F936F937F938F939F935B
:1005D000AF93BF93EF93FF938091B900887F8036EC
:1005E00009F49CC068F5883209F45BC090F480314E
:1005F00009F454C038F4882309F4F6C0883009F4AB
:100600004DC0F6C0883109F44CC0803209F45DC099
:10061000EFC0803409F468C048F4803309F455C051
:10062000883309F0E5C08093EE01D8C0803509F425
:100630004FC0883509F45DC0883409F0D9C0D6C0F0
:10064000883909F4C7C0A8F4883709F467C038F4BA
:10065000883609F463C0803709F460C0C9C088389F
:1006600009F4B8C0803909F45FC0803809F0C0C00F
:100670005BC0803B09F486C038F4803A09F466C058
:10068000883A09F47FC0B4C0803C09F4A7C0883C14
:1006900009F4A4C0883B09F48AC0AAC0809114025E
:1006A00010C09091130280911202981770F5E0919A
:1006B000130281E08E0F80931302F0E0EE50FE4FA4
:1006C00080818093BB0085EC86C08093EE018EC054
:1006D000E091130281E08E0F809313028091BB00A2
:1006E000F0E0EE50FE4F8083909113028091120251
:1006F0006EC0E091130281E08E0F8093130280910F
:10070000BB00F0E0EE50FE4F80838091F10181113B
:100710006DC081E08093F00184EA61C083E0809342
:10072000EF011092ED01CFCF8091ED01803208F002
:1007300051C0E091ED0181E08E0F8093ED01809139
:10074000BB00F0E0E353FE4F8083BDCF85EC809388
:10075000BC001092EF018091ED01803230F4E09105
:10076000ED01F0E0E353FE4F10826091ED0170E087
:10077000E091CB01F091CC018DEC91E009951092C4
:10078000ED0136C084E08093EF011092CA0110920F
:10079000C901E091C701F091C80109958091C90193
:1007A000811105C081E08093C9011092A701E091F9
:1007B000CA0181E08E0F8093CA01F0E0E955FE4F37
:1007C00080818093BB009091CA018091C9019817E4
:1007D00008F479CF85E88093BC000AC085EC80934B
:1007E000BC001092EF0104C01092EE010E94C800FC
:1007F000FF91EF91BF91AF919F918F917F916F91F9
:100800005F914F913F912F910F900FBE0F901F90CE
:1008100018951F920F920FB60F9211242F933F93AA
:100820008F939F93AF93BF9380915A0190915B01F7
:10083000A0915C01B0915D013091590123E0230F3B
:100840002D3720F40196A11DB11D05C026E8230F08
:100850000296A11DB11D2093590180935A019093D6
:100860005B01A0935C01B0935D0180915E0190916A
:100870005F01A0916001B09161010196A11DB11DC0
:1008800080935E0190935F01A0936001B09361013A
:10089000BF91AF919F918F913F912F910F900FBE7C
:1008A0000F901F901895E5E1F2E01382128288EE16
:1008B00093E0A0E0B0E084839583A683B7838CE0C7
:1008C00091E091838083E1E2F2E0138212828EE173
:1008D00091E09183808387E2848380E1818782E055
:1008E000828713860895789484B5826084BD84B528
:1008F000816084BD85B5826085BD85B5816085BD1B
:1009000080916E00816080936E00109281008091D2
:10091000810082608093810080918100816080935A
:100920008100809180008160809380008091B1007F
:1009300084608093B1008091B00081608093B000AA
:1009400080917A00846080937A0080917A0082603E
:1009500080937A0080917A00816080937A00809100
:100960007A00806880937A001092C1001092A401EE
:100970001092A3011092A6011092A5011092EF010E
:1009800081E08093F1011092F00182E10E948200E7
:1009900083E10E9482008091B9008E7F8093B9002C
:1009A0008091B9008D7F8093B90088E48093B8006E
:1009B00085E48093BC008AEF90E09093C801809317
:1009C000C7018BEF90E09093CC018093CB01109204
:1009D000260280912B02823018F098E09093260234
:1009E0008093290262E370E080E090E00E94A90118
:1009F00060912C0281E292E00E940D0268EE73E0A9
:100A000080E090E00E94A90160E381E292E00E9410
:100A10007102CBE4D6E4CE010197F1F760E381E205
:100A200092E00E9471022197F1F760E381E292E087
:100A30000E94710283E592E00197F1F760E281E2A2
:100A400092E00E94710260912602606240E081E2C1
:100A500092E00E948A0284E08093270240E06CE0EA
:100A600081E292E00E948A0240E061E081E292E04D
:100A70000E948A02CBE3DFE1CE010197F1F782E029
:100A80008093280240E066E081E292E00E948A02C0
:100A900040E062E081E292E00E948A022197F1F751
:100AA00088E080932C0260E081E292E00E940D02D7
:100AB00080E00E94A1024CE050E066E271E081E239
:100AC00092E00E94E301C0E0D0E081E00E94A10238
:100AD00041E150E063E371E081E292E00E94E301D2
:100AE00082E00E94A10241E150E065E471E081E210
:100AF00092E00E94E301209741F30E940000E5CFBD
:100B0000EE0FFF1F0590F491E02D099481E090E035
:0A0B1000F8940C948B05F894FFCFC5
:100B1A0000004000140054000000000055012801A4
:100B2A00D602FC0020010C01FD0000000000CF02EB
:100B3A00E301D602D50268656C6C6F206269672092
:100B4A007A6F00627574746F6E2070726573736564
:100B5A00733A203100627574746F6E207072657317
:080B6A007365733A20320000AC
:00000001FF
